:1000000000040020E9040000EB040000EB04000001
:10001000EB040000EB040000EB040000EB04000024
:10002000EB040000EB040000EB0400002348000098
:10003000EB040000EB040000EB0400001951000089
:10004000EB040000EB040000EB040000EB040000F4
:10005000EB040000EB040000EB040000EB040000E4
:10006000EB040000EB040000EB040000EB040000D4
:10007000EB040000EB040000EB040000EB040000C4
:10008000EB040000EB040000EB040000EB040000B4
:10009000EB040000EB040000EB040000EB040000A4
:1000A000EB040000EB040000EB040000EB04000094
:1000B000EB040000EB040000EB040000EB04000084
:1000C000EB040000EB040000EB040000EB04000074
:1000D000EB040000EB040000EB040000EB04000064
:1000E000EB040000EB040000EB040000EB04000054
:1000F000EB040000EB040000EB040000EB04000044
:10010000EB040000EB040000EB040000EB04000033
:10011000EB040000C1560000EB040000EB040000FB
:10012000EB040000EB040000EB040000EB04000013
:10013000EB040000EB040000EB040000EB04000003
:10014000EB040000EB040000EB040000EB040000F3
:10015000EB040000EB040000EB040000EB040000E3
:10016000EB040000EB040000EB040000EB040000D3
:10017000EB040000EB040000EB040000EB040000C3
:10018000EB040000EB040000EB040000EB040000B3
:10019000EB040000EB040000EB040000EB040000A3
:1001A000EB040000EB040000EB040000EB04000093
:1001B000EB040000EB040000EB040000EB04000083
:1001C000EB040000EB040000EB040000EB04000073
:1001D000EB040000EB040000EB040000EB04000063
:10040000FFFFFFFFFFFFFFFFFFFFFFFF7EFFFFFF7D
:1004100072B6264880F30888254880F30988254865
:1004200025490860022080F31488BFF36F8F03F022
:10043000E3FF03F01FFF4FF0553020491B4A914264
:100440003CBF41F8040BFAE71D49194A91423CBFF1
:1004500041F8040BFAE71B491B4A1C4B9A423EBF6A
:1004600051F8040B42F8040BF8E700201849194A28
:1004700091423CBF41F8040BFAE703F0C1FF03F0DF
:10048000BCFF154C154DAC4203DA54F8041B8847E9
:10049000F9E702F0A9FB124C124DAC4203DA54F812
:1004A000041B8847F9E703F0A9BF000000040020FF
:1004B000000C00200000000008ED00E0000000201B
:1004C0000004002014620000000C0020900C0020AA
:1004D000000E0020801A002010040000100400000C
:1004E000100400001004000092E700F000F8FEE79E
:1004F0002DE9F04FC1F80CD0C3689D46BDE8F08FE0
:10050000002383F311882846A047002004F060F9F7
:10051000FEE704F0B9F800DFFEE7000053B94AB97E
:10052000002908BF00281CBF4FF0FF314FF0FF30FB
:1005300000F074B9ADF1080C6DE904CE00F006F8D6
:10054000DDF804E0DDE9022304B070472DE9F0474F
:10055000089E04468846002B40F085808A42154656
:1005600048D9B2FA82F24AB1C2F1200701FA02F385
:1005700020FA07F7954047EA030894404FEA154EE2
:10058000230CB8FBFEF71FFA85FC0EFB178843EA25
:10059000084307FB0CF1994209D9EB1807F1FF302A
:1005A00080F0E380994240F2E080023F2B445B1AE6
:1005B000A4B2B3FBFEF00EFB103344EA034400FB8D
:1005C0000CFCA44509D92C1900F1FF3380F0CB8035
:1005D000A44540F2C88002382C4440EA0740A4EB0E
:1005E0000C0400271EB1D4400023C6E9004339465D
:1005F000BDE8F087002A53D0B2FA82F2002A40F018
:10060000B680491B4FEA154E1FFA85F80127B1FB4A
:10061000FEFC230C0EFB1C1143EA014308FB0CF10A
:10062000994207D9EB180CF1FF3002D2994200F23F
:10063000EC808446591AA3B2B1FBFEF00EFB1014F5
:1006400043EA044408FB00F8A04507D92C1900F13F
:10065000FF3302D2A04500F2DC801846A4EB080468
:1006600040EA0C40BEE78B4208D9002E78D0002724
:10067000C6E9000138463946BDE8F087B3FA83F78A
:100680007FB98B4202D3824200F2BD80841A61EBB3
:10069000030301209846002EA9D0C6E90048A6E72A
:1006A000FFDEC7F12005BB4022FA05FC4CEA030C33
:1006B00001FA07F420FA05F821FA05F34FEA1C4E77
:1006C00048EA0404B3FBFEF9210C0EFB19331FFAB0
:1006D0008CF841EA034309FB08FA9A4502FA07F24B
:1006E00000FA07F10BD91CEB030309F1FF3080F08E
:1006F00088809A4540F28580A9F102096344A3EB02
:100700000A03A4B2B3FBFEF00EFB103344EA034429
:1007100000FB08F8A04508D91CEB040400F1FF33E6
:100720006BD2A04569D90238644440EA0940A4EB81
:100730000804A0FB02894C45C6464B4654D351D011
:10074000002E69D0B1EB0E0264EB030404FA05F548
:1007500022FA07F3FC401D43C6E90054002746E790
:100760003746304643E7184637E707461FE7C2F1EA
:10077000200320FA03F7954001FA02F021FA03F36F
:100780004FEA154E3843010CB3FBFEF71FFA85F80C
:100790000EFB173341EA034107FB08F38B4204FACF
:1007A00002F407D9691807F1FF3C28D28B4226D9F9
:1007B000023F2944CB1A81B2B3FBFEF00EFB10338B
:1007C00041EA034100FB08F38B4207D9691800F1A5
:1007D000FF3C10D28B420ED902382944C91A40EA94
:1007E000074714E74145ABD2B8EB020E69EB0C02A8
:1007F00001381346A4E76046F0E7184695E76746D8
:10080000D8E781467BE7384645E7ACF1020C2B443C
:1008100010E702382C4421E73746E8E6704700BF6E
:10082000024B0146186800F07BB900BF000C0020A5
:10083000024B0146186800F01DB900BF000C0020F3
:10084000032A70B412D940EA0105AD0704460B46ED
:1008500020D11946204653F8045B54F8046BAE428D
:1008600018D1043A032A20461946F2D8541E72B110
:1008700003780A789A4208BF241806D00CE010F8D2
:10088000013F11F8012F934206D1A042F7D1002079
:1008900070BC7047541EEBE7981A70BC704700BFDD
:1008A000844641EA000313F003036DD1403A41D37B
:1008B00051F8043B40F8043B51F8043B40F8043B3A
:1008C00051F8043B40F8043B51F8043B40F8043B2A
:1008D00051F8043B40F8043B51F8043B40F8043B1A
:1008E00051F8043B40F8043B51F8043B40F8043B0A
:1008F00051F8043B40F8043B51F8043B40F8043BFA
:1009000051F8043B40F8043B51F8043B40F8043BE9
:1009100051F8043B40F8043B51F8043B40F8043BD9
:1009200051F8043B40F8043B51F8043B40F8043BC9
:10093000403ABDD2303211D351F8043B40F8043B69
:1009400051F8043B40F8043B51F8043B40F8043BA9
:1009500051F8043B40F8043B103AEDD20C3205D379
:1009600051F8043B40F8043B043AF9D2043208D071
:10097000D2071CBF11F8013B00F8013B01D30B88E3
:1009800003806046704700BF082A13D38B078DD0C1
:1009900010F003038AD0C3F10403D21ADB071CBF93
:1009A00011F8013B00F8013B80D331F8023B20F8FD
:1009B000023B7BE7043AD9D3013A11F8013B00F836
:1009C000013BF9D20B7803704B7843708B788370BE
:1009D00060467047F0B4860746D0541E002A3CD0CB
:1009E000CAB2034602E014F1FF3436D303F8012BF8
:1009F0009D07F8D1032C29D9CDB245EA05250F2C46
:100A000045EA054533D9A4F11006360903F120075C
:100A100007EB061703F1100242E9045542E90255BB
:100A20001032BA42F8D1721C14F00C0F03EB021210
:100A300004F00F0613D0331F23F0030304331344D1
:100A400042F8045B9342FBD106F003042CB1C9B217
:100A50001C4403F8011B9C42FBD1F0BC7047344698
:100A60001346002CF3D1F8E714460346C2E71A46B2
:100A70002646E0E700293CD038B551F8043C0C1F6D
:100A8000002BB8BFE418054600F0AEF8234B1A68F7
:100A90002AB1A2420DD921686018824223D0626037
:100AA00028461C60BDE8384000F0A0B8A34203D837
:100AB0001A465368002BF9D111685018A04219D07A
:100AC00024D821686018834206D0636054602846A9
:100AD000BDE8384000F08AB8D3E900030144636000
:100AE00021605460F3E7D2E90002014462602160B2
:100AF000D6E7704720680144501883421160E6D160
:100B0000D3E90003014453601160E0E70C232B603C
:100B10002846BDE8384000F069B800BF000E00204C
:100B2000F8B5CD1C25F0030508350C2D38BF0C2574
:100B3000002D064633DBA94231D82A4F00F054F885
:100B40003A6852B113685B1B04D43FE023685B1B17
:100B500029D522465468002CF8D1796800293BD069
:100B60002946304604F016FA431C28D0C41C24F051
:100B70000304A04205D0211A304604F00BFA0130DC
:100B80001DD02560304600F031F804F10B0020F054
:100B90000700231DC21A01D01B1AA350F8BD0C2256
:100BA00032600020F8BD0B2B05D8A242636811D03B
:100BB0005360E7E7144623601C442560E2E70C23FA
:100BC0003046336000F012F80020F8BD0B2BF1D84E
:100BD000536814463B60D5E7304604F0DBF9786093
:100BE000BEE700BF000E0020704700BF704700BF87
:100BF0007047000010B5064C23783BB901F09CF912
:100C000001F0F2F901202070FFF7F2FF10BD00BFE4
:100C1000080E002010B5054C237833B1022000F0F7
:100C200063FD00202070FFF7E3FF10BD080E0020D9
:100C3000272808B508D81E2804D2042812D3022079
:100C400001F080F9012006E02D28F8D004D82A28E8
:100C500014BF0020012008BD4C28F3D040F22D2302
:100C60009842F5E70020F6E7F8B50F46044601F094
:100C70004DF9054601F07CF92F4B1E782843C0B290
:100C80002EB9222856D1FFF7B5FF354614E07D79FD
:100C9000002DFAD010F09D0F3CD145F23F239C422D
:100CA0001AD8B4F5A44F07D2B4F5804F06D2B4F5E4
:100CB000005F21D2E62C04D12846F8BDB4F5A04F40
:100CC0002BD301F04FF92046FFF7B2FF044608B3DB
:100CD00001F0E6F92546EFE745F2B4239C42EBD05C
:100CE00005D8A4F5A443603B3F2BEAD8E4E7A4F57C
:100CF000A543403B1F2BF8E7BB7913F0F00F10D151
:100D0000C4F30424122C0ED0162C0ED0022C0FD0BB
:100D1000142CD1D0FFF77EFFCEE7BB7913F0F00F94
:100D2000CAD0E4B2CDE7E524CBE741F2E624C8E738
:100D3000E124C6E70125BFE7080E002010B5054CE9
:100D400001F086FD06220521204604F001FA202349
:100D5000636010BD80F00F40FFF786BF01280DD8FB
:100D60000E290BD8062A09D8C1EBC101692303FB60
:100D700000101044024B33F81000704701207047F8
:100D8000345A0000FFF7EABF0120704708B5FFF7AB
:100D9000FBFF08BD0120704708B5FFF7DDFF08BD68
:100DA000704708B5FFF7FCFF08BD000013B502ABA4
:100DB00003E903000F4B1B78B3B99DF80530009889
:100DC00073B16AB100F0D6FD04460146009800F008
:100DD0009FFD0099204602B0BDE8104001F004BC20
:100DE00000F0B0FD0446F4E7009800F0C3FD009960
:100DF000F1E700BF110E0020034610B400885C88A4
:100E00000A4640EA0440998810BCFFF7CFBF10B5EE
:100E100001210446FFF7F0FF2146FFF7B7FF10BDA1
:100E200010B500210446FFF7E7FF2146FFF7B9FFA1
:100E300010BD0120704708B5FFF7FBFF08BD10B5D6
:100E4000044600F072FC2046FFF7F5FF46F2A810BA
:100E5000BDE8104003F0C1BC08B50120FFF7EFFF6B
:100E6000BDE8084002F044BF08B50020FFF7E7FFE7
:100E7000BDE8084002F043BF38B501210546FFF741
:100E8000BBFF29460446FFF787FF08B9002038BD9D
:100E90002946204602F0A2FC0028F7D02946204629
:100EA00002F0EEF80028F1D02946204602F0C2F800
:100EB0000028EBD06B795BB147F603439C421DD011
:100EC0000AD8B4F5F84F16D047F601439C4217D024
:100ED0002846FFF75FFFDAE747F65B439C4215D0F1
:100EE00047F65C439C420ED047F65A439C42EFD1F2
:100EF00001F04AF9ECE7FFF7AFFFC7E701F04AF965
:100F0000FFF7B2FFC2E701F033F9E1E701F03FF983
:100F1000DEE708B502F04DFEBDE8084000F070B80D
:100F200008B500F072F8BDE8084002F047BE70470F
:100F300001207047C043C0B2104B10F0010F4FF4B6
:100F4000804214BF5A609A600D4B10F0020F4FF0B0
:100F5000800214BF5A609A60084B10F0040F4FF0E3
:100F6000200214BF5A609A60064B10F0080F4FF031
:100F7000806214BF5A609A60704700BF00F00F4053
:100F800080F00F4000F10F4038B50546FFF7D0FF65
:100F9000044610B12846FFF7CDFF204638BD0000BB
:100FA00038B5114C114D204606220E2104F0D0F820
:100FB0004FF48043636006220721284604F0C8F8F6
:100FC000802320466B600622052104F0C1F820230F
:100FD000636004F5807406221A21204604F0B8F8F4
:100FE0004FF08063636038BD00F00F4080F00F4029
:100FF00010B50446FFF79BFF2046FFF7C5FF10BD65
:1010000008B50020FFF7F4FF08BD08B502F03AFC70
:10101000FFF7EEFF08BD000010B502F033FC074BF0
:101020001A788242044607D0187002F01BFE044B67
:1010300018602046FFF7DCFF10BD00BF100E002037
:101040000C0E00201FB56C4684E803009DF80530A7
:101050000BB100F087FF0023ADF80E3094E80300D9
:1010600011F0FF0F0290ADF80C1002AC05D194E81E
:10107000030000F0D1FE04B010BD2046FFF7C7FE0C
:101080000028F4D1F7E70379012B02D1008800F0A2
:1010900093BC704708B529B102F056F9BDE8084085
:1010A00002F034BA02F0BCF9F8E7000010B50446CB
:1010B00000287AD0822813D102F0ECFB810774D487
:1010C000392002F0D5FC00F0EBFF4FF4FA5003F0AA
:1010D00084FB392002F0E6FCBDE8104000F0E0BFE0
:1010E00083280ED102F0D6FBC2075ED4532002F053
:1010F000BFFC00F0D5FF42F2107003F06EFB5320EE
:10110000E8E784280ED102F0C5FB43074DD4472001
:1011100002F0AEFC00F0C4FF42F2107003F05DFB81
:101120004720D7E7031FDBB2A02B10D801F0C4FE85
:1011300000283AD1204602F02BFC20B1204602F0D4
:10114000B1FC00F0ADFF204602F092FCC4E700F1D4
:101150002003DBB2072B07D800F007040120A040D2
:10116000C0B200F0D9FEB7E700F15B03DBB2022B9F
:1011700005D80E4ABDE81040D05C02F0ABBB00F1D0
:101180005803DBB21A2B06D8094ABDE8104032F8E2
:10119000130002F0BBBB3334E4B2122C05D802F0CA
:1011A000D3F8BDE8104002F0B1B910BD0E5C0000EC
:1011B000D85B000008B5034600285AD082280FD11A
:1011C00002F068FB810754D5392002F051FC00F091
:1011D00067FF392002F066FCBDE8084000F060BF00
:1011E00083280AD102F056FBC20742D5532002F0F1
:1011F0003FFC00F055FF5320ECE784280AD102F0B1
:1012000049FB430735D5472002F032FC00F048FF88
:101210004720DFE7021FD2B2A02ADBD900F120026B
:10122000D2B2072A07D800F0070301209840C0B2C5
:1012300000F07AFED0E700F15B02D2B2022A04D8B5
:101240000020BDE8084002F045BB00F15802D2B2D0
:101250001A2A04D80020BDE8084002F057BB3333F7
:10126000DBB2122B05D802F0DBF8BDE8084002F033
:101270004DB908BD38B505460C46FFF717FF1CB938
:101280002846FFF797FF38BD6420013C03F0A5FA1C
:10129000A4B2F4E708B539280CBF50210021FFF7AC
:1012A000E9FF08BD08B528B100F036FEBDE80840EA
:1012B00000F0F6BE08BD08B528B100F035FEBDE867
:1012C000084000F0EDBE08BD2DE9F047867944796D
:1012D00080460D4600F010FE3609074608B3274643
:1012E000FCB1C5F3072303F0F002402A0CD0E9B2A9
:1012F00001F12002D2B2072A25D903F0E003202B06
:1013000002D101291FD906B3AF4B5F7817F004074C
:1013100007D0022000F0FCFE00F0EEFD80F001009E
:10132000C7B2C5F303330B2B43D8DFE813F010002B
:10133000100063006300C300D90042004200DE00D9
:101340003C014F014F010027EBE73746E9E7C5F3C2
:101350000723C5F3032613F0F00F18BF36015FFA19
:1013600085F994B166B109F12003DBB2072B304651
:1013700002D9B9F1000F05D100F0CEFD00F090FECA
:1013800048465CE000F0DEFDF8E74846FFF712FF54
:101390007EB109F12003DBB2072B304602D9B9F147
:1013A000000F02D100F0C0FD01E000F0D3FD00F01D
:1013B00077FEC5F30335083D032D03D802F062FA2A
:1013C000FFF716FE002F00F05A8100F08DFD10F09F
:1013D000010040F0548188F8050000F07FFD00F026
:1013E0002DFA404600F062F900F078FDBDE8F047C4
:1013F00000F030BAC5F3072303F0F003C5F3032967
:10140000202B5FFA85FA18BF4FEA0919BAF1000FCD
:1014100007D0BAF1010F35D0002C3DD0E6B15046CF
:101420000DE0694B5B78590714D45CB1B9F1000F3A
:1014300004D0484600F070FD00F032FE0020FFF7B7
:1014400035FEB6E72046FFF7B5FEB9F1000FB0D084
:101450004846A7E754B11EB94846FFF723FFA8E75F
:10146000012EA6D1484600F0A3FDA2E7002EA0D190
:101470004846FFF720FF484600F0A8FD484600F028
:1014800083FD96E714B1052E93D8E5E7042E90D896
:101490004846FFF710FF8CE7002EF9D0BAF1390F5C
:1014A0000CBF4FF4FA50012003F097F95046FFF7B4
:1014B00081FE7EE7C5F3812343B1012B7FF479AF31
:1014C00064B1C5F3090002F021FA72E724B1C5F353
:1014D000090002F0FFF96CE72046FAE72046F2E740
:1014E0002146E8B2FFF7D6FD63E715F4407F29D126
:1014F000002C7FF45EAFEA06C5F3421148BF0F240B
:101500004FEA810148BF8C4005F00F0048BFE4431B
:1015100000FA01F0C5F3812348BFA4B280B2022BC8
:1015200040EA040008D00AD8012B02D000F05EF98E
:101530003FE700F053F93CE700F060F939E700F0CD
:101540004AF936E7C5F30122D3B20CB302F0010326
:10155000002B3FF42EAFC5F34210820015F01000AF
:101560001CBF0F20904005F00F0318BFC04303FAC3
:1015700002F3C5F3812218BF80B29BB2022A40EA6F
:1015800003000AD00CD8012A04D000F083F910E738
:101590005B08DDE700F076F90BE700F083F908E778
:1015A00000F03AF905E75FFA85F9C5F303261CB1A7
:1015B000304600F043F94FE74846FFF77CFE3046DF
:1015C00000F048F9F5E600BFCA1800205FFA85F977
:1015D000A9F1F003042B3DD8DFE803F003220E1538
:1015E0001E003CB1042E3FF6E4AEC5F3042000F02B
:1015F0003DF9DEE6052EF6E7C5F30420002CDFD129
:1016000000F01CF9D5E624B1C5F3042000F00FF971
:10161000CFE600F009F9CCE61A4B5B785B0704D4FF
:10162000C5F30420002CCBD0EAE74CB1C5F3042469
:10163000204600F003F90321204600F047FDB8E6FC
:10164000012000F065FD012E7FF6B3AE022000F010
:101650005FFDAEE62CB1002E7FF492AEC5F3042000
:10166000CEE74EB1B9F1390F0CBF4FF4FA5001205B
:1016700003F0B3F848461AE7C5F30420A0E7BDE835
:10168000F08700BFCA18002038B5018804464079A9
:1016900000F09EF9054600F00DF900F09BF8294690
:1016A0002046BDE83840FFF70FBE0000037910B5B3
:1016B0000446B3B1FFF7E0FB68B900F01DFC80B150
:1016C000637973B1074B5B785B070AD50220BDE8ED
:1016D000104000F01DBD2046FFF7D6FF2046FFF763
:1016E0009FFB10BDCA18002008B528B100F032FCDD
:1016F000BDE8084000F0D4BC08BD08B5002002F0E9
:10170000E9F8002002F002F900F02CFC00F0C8FC1F
:1017100001F018FFBDE8084001F0F8BE08B502F07E
:10172000DBF9BDE80840FFF7E8BF08B500F004FCAE
:10173000BDE80840FFF7F2BFC0F303320E3202F0FB
:101740000F02092A10B5C4B21BD8012101FA02F315
:1017500040F20332134203D113F010000DD110BD3B
:10176000F02C10D004D8E72C8CBF00200120F6E725
:10177000F42C14BF00200120F1E7E72C03D9F12C51
:10178000F7E70020EBE70846E9E708B5037933B14E
:10179000008800F011F9BDE80840FFF7CDBF1846FA
:1017A00008BD82B002AB03E9030002B0704782B00B
:1017B00002AB03E9030002B07047704708B5FFF7BA
:1017C000FCFF08BD08B5FFF7F9FF014B188008BD05
:1017D000120E00207047FFF7F5BF0000024B1B8878
:1017E0001843FFF7EFBF00BF120E0020024B1B880B
:1017F0001840FFF7E7BF00BF120E0020024B1B8806
:101800005840FFF7DFBF00BF120E0020704708B539
:10181000FFF7FCFF08BD000008B5FFF7F8FF014B1C
:10182000188008BD140E00200020FFF7F5BF01232B
:1018300003FA00F080B2FFF7EFBF0000012303FAC4
:1018400000F0034B1B88184380B2FFF7E5BF00BFD1
:10185000140E0020012303FA00F0034B1B8823EA37
:101860000000FFF7D9BF00BF140E0020012303FAC8
:1018700000F0034B1B88584080B2FFF7CDBF00BF7C
:10188000140E0020024B1B881843FFF7C5BF00BF92
:10189000140E0020024B1B881840FFF7BDBF00BF8D
:1018A000140E0020024B1B885840FFF7B5BF00BF45
:1018B000140E0020704701F0070330B5C908012459
:1018C00002EB81029C40E4B2013A002112F8015F70
:1018D00020FA01F343F300036B40234001316B40D6
:1018E00004291370F2D130BD10B5002200F00704B6
:1018F000C00801EB800110468B5CE34003F001035C
:10190000934001321843042AC0B2F5D110BD000043
:1019100082B00B46ADF80400C0F307200E280CD8A7
:101920009DF80410062908D8C0EBC0000144044A01
:1019300089B2184602B0FFF7BEBF02B0704700BFC1
:10194000160E002082B0ADF80400C0F307200E2868
:101950000BD89DF80430062B07D8C0EBC000184404
:10196000034980B202B0FFF7BFBF002002B070474A
:10197000160E00200E4B73B51E880E4BADF80400FA
:101980001B880F241E4346FA04F3DB07E5B206D496
:1019900014F1FF34F7D20025284602B070BD01993A
:1019A000284600F032FE80B20128F1D0F4E700BFF3
:1019B000140E0020120E002007B5ADF804000198A7
:1019C000FFF7D8FF019903B05DF804EB00F01DBEEE
:1019D00013B5104BADF804101B782BB1019802B071
:1019E000BDE81040FFF7E8BF70B10198FFF7C2FFF4
:1019F000044601460198FFF78BFF0199204602B08B
:101A0000BDE8104000F001BE0198FFF79BFF0446BF
:101A1000F3E700BF110E0020F8B50C4B0C4E1C78FC
:101A20000C4D3378A34200D1F8BD05EBC40335F863
:101A300034005F889A88D98840EA074042EA014129
:101A40000134FFF7B4FE04F00704EAE7970E002024
:101A5000960E0020560E0020064B10B418885C88A5
:101A60009A88D98840EA044042EA014110BCFFF755
:101A70009EBE00BF4E0E0020F8B51B4B9A7912F0A7
:101A8000F00F0AD15A7942B1184A194912780D78E3
:101A90001E885F88174CAA4200D1F8BD11B204EB32
:101AA000C1000079E0B134F83110B14218D104EB33
:101AB000C2004179A1B94188C91B89B2C7290FD891
:101AC0009979012262F307119971837962F30713FF
:101AD00083710548FFF7EAFDBDE8F840FFF79CBFBA
:101AE000013202F00702D6E74E0E0020970E0020CA
:101AF000960E0020560E002070B50D4B0D4A1B7837
:101B000015780D4CAB4202D10022104670BD04EB9B
:101B1000C30256788E4206D114F83360864202D151
:101B20005279002AF1D1013303F00703EAE700BF3D
:101B3000970E0020960E0020560E00202DE9F04F43
:101B400089B002AB0446014606221846B14DFEF7A5
:101B5000A7FE2979227967790346A846C1B9AAB1B7
:101B60008FB12046FFF711FE064660B108222146DC
:101B70002846FEF795FE2846FFF785FAFFF77CFF1B
:101B8000FFF76AFF65E02046FFF790FD012660E061
:101B9000B4F802A068886E7994F800B094F80190C7
:101BA000AAEB000080B2002E00F0E780C72800F208
:101BB0009780002A4DD0AB792A88208813F0F00F47
:101BC00058D190420ED1002F4DD1012262F307135C
:101BD000AB71FFF741FF2846FFF768FDAB79A371B2
:101BE000002636E0002F3ED149465846FFF784FFD5
:101BF0005846FFF781FF05460028F1D18DF808B05F
:101C00008DF809900298FFF7D7FEC0F303310B2936
:101C100012D801228A4012F4406FC3B21DD112F0D3
:101C20000C0F0ED1910707D010F4706F00D07BB16C
:101C30002033DBB2072B0BD92046FFF737FD3546A3
:101C400006E010F4706FF3D0A27912F0F00FEFD12C
:101C50002E46304609B0BDE8F08FEF2BF8D90F3390
:101C6000DBB2022BE7E798F8063043F0010388F86F
:101C70000630B5E790420AD14FB92046A371FFF76D
:101C800015FD082221462846FEF70AFE78E7204681
:101C9000FFF77BFD00283FF476AF002F3FF473AFD2
:101CA00098F806301F2B11D9B8F80020ADF8102095
:101CB00098F804208DF814200022ADF812A08DF8B9
:101CC00015208DF8163004A8FFF7F0FC08222146F5
:101CD0005048FEF7E5FDFFF7CFFEFFF7BDFE55E7E5
:101CE000A87910F0F001019118D18DF80C208DF831
:101CF00008B08DF80990ADF80AA08DF80D7093E842
:101D00000300FFF74EFD2846FFF7D0FC082201999B
:101D10002846FEF75FFEFFF79FFE61E7002A98D096
:101D20002A8823889A420AD14FB9A0712046FFF72A
:101D3000BDFC082239462846FEF74CFE89E72046BE
:101D4000FFF723FD00283FF41EAF002F3FF41BAF29
:101D500098F806301F2BB9D9B8F80020ADF8182034
:101D600098F804208DF81C200022ADF81AA08DF8F8
:101D70001D208DF81E3006A8A6E7C72835D8002AF2
:101D80003FF404AF3E46002F3FF4FDAE2A8823887F
:101D90009A421CD1AB79DA0713D413F0F00210D0B9
:101DA000F02AA37106D0DBB2C3F30312013262F34F
:101DB0000713A3712046FFF779FC08222146154836
:101DC00062E7082221461348FEF76AFD41E72046F4
:101DD000FFF7DBFC00287FF479AFAB79204643F0B6
:101DE0000103AB71FFF762FC33E78DF80C208DF82F
:101DF00008B08DF80990ADF80AA08DF80D7093E841
:101E00000300FFF7CEFC082231462846FEF7E2FD2C
:101E1000B6E600BF4E0E0020F0B585B06C4684E8F3
:101E200003002046FFF78AFE284E294D074668B179
:101E30009DF804301BB194E80300FFF7B8FC254C73
:101E400028783378834226D105B0F0BD94E80300AA
:101E50009DF8042002AB83E80300002AEFD030781D
:101E60002A78441C04F0070494420AD01946194BFE
:101E7000082203EBC000FEF713FD3470FFF7CCFD22
:101E8000DDE7FFF752FC08223946134837702F7000
:101E9000FEF7A0FDD3E704EBC000FFF74FFE0028DC
:101EA000D2D02B7834F8330004EBC3035F889A88D0
:101EB000D98840EA074042EA0141FFF778FC2B78D5
:101EC000013303F007032B70BAE700BF960E002022
:101ED000970E0020560E00204E0E0020014B187861
:101EE000C0087047E80E0020024B187800F0070089
:101EF000704700BFE80E0020034B187810F0070071
:101F000018BF0120704700BFE80E0020014B187871
:101F1000704700BFEB0E0020024A13781843107080
:101F2000704700BFEB0E0020024A137823EA00003E
:101F300010707047EB0E0020014B00221A707047A2
:101F4000EB0E0020024A137818431070704700BF50
:101F5000EC0E0020024A137823EA0000107070474C
:101F6000EC0E0020014B00221A707047EC0E00208E
:101F7000014B1878704700BFEA0E0020704708B583
:101F8000FFF7FCFF08BD000008B5054A13780342BF
:101F900004D023EA00001070FFF7F1FF08BD00BF76
:101FA000E90E0020704708B5FFF7FCFF08BD0000F0
:101FB00008B5054A137830EA030C03D003431370C5
:101FC000FFF7F1FF08BD00BFEA0E002008B5054A83
:101FD0001378034204D023EA00001070FFF7E3FFF8
:101FE00008BD00BFEA0E002008B5044B1A781AB1EC
:101FF00000201870FFF7D7FF08BD00BFEA0E0020D1
:1020000010B5084B1C78084B1B781C43074B1B78FA
:102010002BB11C4301F096FC08B1FFF7E5FF204609
:1020200010BD00BFEB0E0020EC0E0020EA0E0020D9
:1020300038B50B4C2568FFF7E3FF28702468094981
:1020400008222046FEF7FCFB48B12146082205483D
:10205000FEF726FC2046BDE8384001F01FBC38BD25
:10206000640C0020C00E002038B50B4C2568FFF72B
:10207000C7FF68702468094920222046FEF7E0FB6C
:1020800048B1214620220548FEF70AFC2046BDE85B
:10209000384001F00BBC38BD680C0020C80E002091
:1020A000054B1B7833B1054B93F90030002B01DA57
:1020B000FFF7DABFFFF7BCBF780C0020CA1800207A
:1020C000704708B5FFF7FCFF08BD0000094A5278C9
:1020D000520710B50AD5084C41EAC0012170FFF73C
:1020E000ADFB2078C008FFF7ECFF10BDBDE8104045
:1020F000FFF7A4BBCA180020E80E002008B5034B68
:1021000000201870FFF7DDFF08BD00BFE80E0020BB
:1021100008B50A4A137823EA0000107042070CD170
:1021200098420AD0064B5B785B0706D5C008FFF7DC
:1021300091FBBDE80840FFF7E1BF08BDE80E0020B5
:10214000CA180020094A08B55378C3F380018142B8
:102150000AD060F382035370108800F038F8022030
:10216000BDE80840FFF7D4BF08BD00BFCA18002073
:10217000044B5878C0F3800080F0010000F00100AB
:10218000FFF7E0BFCA1800200120FFF7DBBF0020E7
:10219000FFF7D8BF08B500F0C7FD4FF6FF7100206C
:1021A000BDE8084000F0A4BD08B5002000F039FDEE
:1021B0004FF6E663C31A5842584108BD022000F0AA
:1021C00021BD032000F01EBD042000F02ABD014601
:1021D000042000F08DBD01460F2000F097BD0146A0
:1021E000132000F093BD0020FFF7F9BF08B50020D1
:1021F000FFF7F1FFFFF7F7FF08BD000007B500F09C
:1022000093FD4FF6E661002000F072FD00210220F0
:1022100000F060FD1C4B01210320198000F05AFDE5
:102220004FF4A051042000F063FD0021062000F0CF
:1022300051FDFF21072000F04DFD0021082000F096
:1022400065FD0021242000F045FD0021172000F04D
:1022500041FD00210C2000F03DFD00210D2000F08B
:1022600039FD00230022CDE9002368460822182109
:1022700000F016FD0021202000F048FDFFF7B6FF1A
:1022800003B05DF804FB00BF120E0020FFF7B6BFDD
:1022900001460E2000F01EBD73B50C4C01F01CFD74
:1022A0002388834205460ED00026ADF8006001F079
:1022B00013FDADF80460ADF8020002AB13E90300B2
:1022C000FEF7C0FE258002B070BD00BFF80E0020F2
:1022D00008B501F0C7FC024B1860024B186008BD3E
:1022E000F00E0020F40E00207047704708B5FFF78D
:1022F000FCFF08BD704708B5FFF7FCFF08BD0120D3
:102300007047000008B5054800F078FA00F014FDA9
:10231000FFF7EAFFFFF7EAFF08BD00BFF52700005F
:102320000120704708B5FFF7FBFF08BD70477047F5
:1023300008B5FFF7FBFFFFF7FAFF08BD08B500F08F
:1023400065FABDE80840FEF72BBE08B501F088FC31
:1023500000F030FBFFF7F2FFFFF7CDFF08BD0000F4
:102360002DE9F04F85B0FFF7CAFF40B9FFF794FFA2
:1023700001F010F905B0BDE8F04FFEF74DBE2B4F50
:1023800000F032FB3E46002420460134E4B216F849
:10239000015B00F063FA0F2C45D08542F4D0244B4A
:1023A0001B789B0701D500F05FFAFFF7BBFF002603
:1023B00000904FF0010B5FFA86F8404600F04EFAAD
:1023C00017F8012B9042824627D000240125424075
:1023D0000DF10809154218D0009BB3B101928DF898
:1023E00008408DF8098001F077FC1AEA050F14BF48
:1023F00001210021ADF80A008DF80CB08DF80D1008
:1024000099E80300FEF71EFE019A0134E4B26D0064
:10241000072CEDB2DED107F801AC01360F2ECAD180
:10242000FFF756FFA4E78542B9D19FE7FA0E0020D7
:10243000090F002038B500F0F3F8B0F5A04F0446BE
:1024400022D2B0F5804F77D2DF2812D8CD2861D2C2
:10245000A7280AD8A5284ED2012804D003B233B148
:10246000032898BF0024204638BDC2284AD900243A
:10247000F9E7B0F5005F80F0A280B0F5807F4DD223
:10248000E82828BF0024EEE745F25F23984216D8DB
:1024900045F2402398425FD245F21F23984254D818
:1024A000B0F5A44F7CD3C4B2A008012304F0030408
:1024B00003FA04F444EA401444F40D442CE045F2D9
:1024C0009F23984207D8B0F5A54F52D300F01F04C0
:1024D0004AF2F4003DE045F2BF23984256D945F256
:1024E000DF239842C3D8040204F4F85444F420448F
:1024F00044F0F004B7E75B34E4B2394B1C5D44F4BC
:102500008044B0E75834E4B2364B33F8144044F416
:102510008844A8E740F4A044A4B2A4E7C0F307208D
:1025200000F006F90546E0B200F07AF82D0205F455
:10253000F855284384B296E7C0B200F071F804F46D
:102540007064044344F42044E6E700F01F044AF2B8
:10255000F10040EA042486E7C4B2C4F382000123F8
:1025600004F0030403FA04F444EA401444F40C4471
:10257000D2E7C4B2C4F38200012304F0030403FAD7
:1025800004F444EA401444F40A44C5E700F01F0090
:1025900000F0CEF8040204F4F85444F4005462E766
:1025A00000F01F0000F0C4F8C306C4F3431448BF92
:1025B0000001240200B2044344F41044ACE7C0F329
:1025C000042000F0B5F80546E0B200F029F82D022D
:1025D00005F4F85545EA000444F400549CE700BFB4
:1025E000115C0000145C000082B0ADF80410C1F36F
:1025F00007210E2906D89DF80420062A02D802B029
:10260000FEF7C0BB002002B0704707B5ADF804105C
:102610000199FFF7E9FF03B05DF804EBFFF70ABF8C
:10262000822825D00CD8312867D004D829285AD040
:102630002A2869D07047352850D0392818D07047DB
:10264000E32833D004D8E0281CD0E22829D07047F2
:10265000E62835D0E72838D0E42835D1334B5A78EE
:10266000910731D51B7813F0100F08BFE72015E054
:102670002E4B1A78920752D15B7813F0080F18BFCF
:1026800029207047294A1378D90744D4527812F088
:10269000010F19D013F0100F08BFE32018BF00205E
:1026A0007047224B1B7813F0040FF2E71F4A137890
:1026B000590732D45278D20731D413F0100FEDE716
:1026C0001A4B1B781A07CED47047184A137819078B
:1026D00027D452789107F0D5E4207047134B1B782C
:1026E00013F0200FCBE7114B1A7892061BD45B78BE
:1026F00013F0080F18BF392070470C4B1B7813F0EC
:10270000400F18BF2A207047084B1B7813F0400F6A
:1027100018BF3120704739207047E2207047E02011
:102720007047E62070473520CEE700BFCA1800206A
:1027300010B52F4C21784B0713D500F01402A2F1ED
:10274000040C00F01803DCF1000242EB0C02A3F1D0
:10275000080CDCF1000343EB0C039A4218BF80F035
:102760000C000B0713D500F01402A2F1140C00F0BA
:102770001803DCF1000242EB0C02A3F1180CDCF1AF
:10278000000343EB0C039A4218BF80F00C006478FE
:10279000E30713D500F0110202F1FF3C00F018032B
:1027A000DCF1000242EB0C02A3F1080CDCF10003A7
:1027B00043EB0C039A4218BF80F00900A30711D520
:1027C00000F0110200F01803A2F111046242A3F11B
:1027D000180C6241DCF1000343EB0C039A4218BF72
:1027E00080F00900CB0648BF00F0E70010BD00BF35
:1027F000CA1800200020704700207047014B186065
:10280000704700BF6C0C00207047000008B5FFF750
:10281000CBFC08B9FFF73AFDFFF7D0FC094B187065
:10282000FFF7D2FC084B1880FFF7EEFFFFF7C9FC5B
:1028300080B2FEF7D0FF054B1888BDE80840FEF7D0
:10284000E6BF00BF090F0020CA180020140E0020A8
:102850007047704708B5FFF7FCFF08BD014B185CD7
:10286000704700BFDB18002070474FF4616001F033
:1028700005BE00BF00BF00BF00BF00BF00BF00BF5C
:1028800000BF00BF00BF00BF00BF00BF00BF00BF50
:1028900000BF00BF00BF00BF00BF00BF00BF00BF40
:1028A00000BF00BF00BF00BF00BF00BF00BF704738
:1028B00008B5FFF7DAFF08BD08B5302383F31188A8
:1028C0000322C0F3075120F07F6002F041FC002397
:1028D00083F3118808BD000038B50C4D0F2455F85E
:1028E000040B421C01D0FFF7E7FF013C14F0FF048A
:1028F000F5D1074D072455F8040B431C01D0FFF711
:10290000DBFF013C14F0FF04F5D138BD685C00002A
:102910004C5C00002DE9F047244F57F821500E463B
:10292000691C804635D0302383F31188012425F0BB
:102930007F69C5F307552946062204FA05F548467E
:1029400002F006FCC9F80850002585F31188FFF74E
:1029500090FFDFF85CA04FF007095AF8040B421C07
:1029600019D1002309F1FF391D43640019F0FF0953
:10297000EDB2E4B2F1D157F82600431C01D0FFF7C5
:102980009BFF291C18BF01213046FFF791FF08F873
:102990000650BDE8F087C0F3075120F07F6002F0D9
:1029A0008BFC0028DDD163B2DCE700BF685C00006F
:1029B0004C5C000010B50F24FFF78EFF224600216B
:1029C0000748FEF707F8224600210648FEF702F8FE
:1029D000204600F037F8BDE81040FEF7AFB900BF61
:1029E000DB180020CC18002030B585B00F22002164
:1029F0006846FDF7EFFF0024E1B268460134FFF7B7
:102A000089FF0F2CF8D1224669460C48FDF718FFC4
:102A1000002814BF0125002504D022466946074836
:102A2000FDF73EFF2B460F220549044800F024F82D
:102A30000446FFF70FFF204605B030BDCC1800203C
:102A4000DB18002010B50446C0EBC000FDF7E8FE1F
:102A5000084B1860002307301946DAB2944200D8B8
:102A600010BDC21F02F8011B8242FBD101330730A7
:102A7000F3E700BF0C0F00202DE9F04F85B098461A
:102A800000924B4A0390002313704A4B02911D7829
:102A900001929B46484F002D59D001F0E3F8474A78
:102AA00013681060C31AFF2B05D82BB9B8F1000FBB
:102AB0005AD1A8464EE0FF23D8B2414B1A680021F4
:102AC0008BF800103970013A8C460B468E468946C9
:102AD000009CCEB2B4420BD8BEF1000F02D001224E
:102AE0008BF80020BCF1000FE0D0334A1370DDE713
:102AF00002F1070A12F8016F4EB1B04231BF361A27
:102B000082F80090AC462B463CBF1670AE4652454C
:102B1000F0D10131DCE7039A4D78D75C87EA0502F2
:102B20000292002209FA02F6029FF6B2374207D05B
:102B3000A75C2FB9012004F802A0754086468446A0
:102B40000132072AEED101F8015F01331CE0B8F130
:102B5000000F05D1184B1B7823B3B8F1000F03D138
:102B600001F080F8154B1860154A9BF800C0D2F8A8
:102B70000080019A1078029A00233B70511E9E46F5
:102B80004FF001094FF0140A009DDAB2C3EBC30401
:102B900095424444BFD8BEF1000F03D0044B8BF8DC
:102BA00000C01870019B187805B0BDE8F08F00BF19
:102BB0000A0F00200B0F0020140F0020100F002020
:102BC0000C0F002008B501F065FBFFF7BEFBBDE868
:102BD000084001F075BB08B501F078FBFFF7C0FBBA
:102BE000BDE8084001F098BB08B500F0FDFF01F01A
:102BF0004FFBFFF787FBFFF7E5FFFFF7ECFFFFF762
:102C000097FBFAE707B50023014601220DF1070003
:102C10008DF8073000F092F89DF8070003B05DF8DA
:102C200004FB07B50023014602220DF10600ADF8B2
:102C3000063000F083F8BDF8060003B05DF804FB31
:102C400007B50422002301460DEB0200019300F0BA
:102C500075F8019803B05DF804FB07B501228DF803
:102C6000071001460DF1070000F07EF803B05DF893
:102C700004FB07B50222ADF8061001460DF106006F
:102C800000F072F803B05DF804FB07B5042201916F
:102C900001460DEB020000F067F803B05DF804FB9D
:102CA000F8B5D31D23F0070300AFADEB030D0546C8
:102CB000144668460E4600F041F82246694628460A
:102CC000FDF7BEFD20B122463146284600F04CF803
:102CD000BD46F8BD38B50C460546FFF793FFA04248
:102CE00005D021462846BDE83840FFF7B6BF38BDBD
:102CF00038B50C460546FFF794FFA04205D02146A3
:102D00002846BDE83840FFF7B4BF38BD38B50C469B
:102D10000546FFF795FFA04205D021462846BDE8AD
:102D20003840FFF7B2BF38BD282200210148FDF727
:102D300051BE00BF180F0020FFF7F6BF38B50D4693
:102D400014460021FDF746FE2A19282A88BFC5F13E
:102D5000280434B1034922462944BDE83840FDF730
:102D60009FBD38BD180F00200B461144282988BF8D
:102D7000C3F1280222B1014602481844FDF790BD74
:102D8000704700BF180F0020431F10B53E2B00F204
:102D90008680DFE803F02D2430228484228484514D
:102DA000845D69848484842284842284408484822F
:102DB000828282828282828275842D2084848484AD
:102DC00084848484848475848422847B7B7B7B7B61
:102DD0007B7B7B7B7500FFF759FA012007E0314AC6
:102DE000137823F00F0313702F4B0120187010BDC0
:102DF000FEF732F8F1E72B4A1378C3F3000181F0B4
:102E0000010161F300031370DBB2D907E5D423F0AD
:102E10000E031370E1E723490B78C3F3400282F0FD
:102E2000010262F341030B7013F0020FD5D01D4A6B
:102E3000137843F00103ECE71A490B78C3F38002DF
:102E400082F0010262F382030B7013F0040FEDE7CE
:102E500014490B78C3F3C00282F0010262F3C3038A
:102E60000B7013F0080FE1E7FEF75FFC0F490B78DA
:102E7000C3F3C01282F0010262F3C7130B70ACE718
:102E80000120FEF7A8FCFEF750FCA6E73938C0B2D7
:102E9000012404FA00F080B2F3E71D38F7E70020C0
:102EA000A5E700BF090F0020400F0020CA1800202E
:102EB0000020704700207047F8B5554F3E78012E2E
:102EC00005463C4617D074B224B1022E36D00020FD
:102ED00038700FE0FFF71AF8222840F09680284655
:102EE000FFF7E6FF18B92846FFF74EFF00E0012084
:102EF00000F00100F8BDFFF709F82228284605D1A7
:102F0000FFF7D6FF0028EED03046F1E7FFF7D2FFFB
:102F100040B9142D0FD007D80B2D03D0102DE9D1B7
:102F200002233B700120E5E7292D04D0A5F13803E9
:102F300058425841DEE700202070DBE7292834D0D2
:102F400026D8142831D013D80728EBD1314B0622CC
:102F50001A70314B14221A70304B04221A70304B05
:102F60000A221A702F4B012018702F4B1870C1E7DE
:102F7000A0F11E03092BD5D81D382C4BC0B21870F8
:102F8000013805283FD8DFE800F0191D2023262945
:102F9000502826D003D84F28C4D10A2123E0512835
:102FA0002CD05228BED101211DE0204A1378002BDD
:102FB000B8D0002313701E4A1360B3E71C4B154AA8
:102FC0001A60AFE71A4B144AFAE7194B134AF7E7AE
:102FD000174B134AF4E7164B124AF1E7144B124A07
:102FE000EEE76FF00901124B1B68002B9AD01A789C
:102FF0000A44FF2A05DDFF221A7093E74FF0FF31E4
:10300000F1E7002AF8DA0022F6E7204672E700BF6F
:10301000400F0020700C0020710C0020720C00206A
:10302000730C0020760C0020770C0020410F00204C
:10303000440F002047F61643984210B50C461BD1AA
:10304000FEF764FF62790D4B72B100F0AA00002810
:1030500015BF01220022352029201A7000F008FD3A
:10306000FFF71EF8002010BD1B78002B14BF352081
:10307000292000F017FDF3E70120F4E7480F0020B6
:1030800038B505464879002800F0DC80A5F5E04514
:10309000ABB2222B00F2BB80FFF796F86A4C013DE1
:1030A0002080212D12D8DFE805F04DBD551B1F599A
:1030B000235D692FB5336D3771973B759F417B83D6
:1030C00027612B65477F8EA9B31651C5237843F03E
:1030D0000103237095E0637843F00803637090E088
:1030E000237843F00203F4E7237843F00403F0E786
:1030F000237843F00803ECE7637843F00103EDE73E
:10310000637843F00203E9E7237843F01003E0E734
:10311000237843F02003DCE7237843F04003D8E72B
:10312000FEF703FB237843F08003D2E7237823F0F4
:103130000C0343F00C03CCE7637823F0030343F064
:103140000303CBE723786FF30003C2E763786FF3E1
:10315000C303C3E723786FF34103BAE723786FF320
:103160008203B6E723786FF3C303B2E763786FF3A4
:103170000003B3E763786FF34103AFE723786FF39E
:103180000413A6E723786FF34513A2E723786FF3C0
:1031900086139EE7FEF7C9FA23786FF3C71398E703
:1031A000237823F00C0394E7637823F0030395E777
:1031B0002378C3F3800282F00102D2B262F3820369
:1031C00062F3C30385E76378DA4302F0010262F336
:1031D000000362F3410381E72378C3F3801282F096
:1031E000010262F3861374E7FEF79FFA2378C3F3B4
:1031F000C01282F0010262F3C7136AE70120FFF7F1
:1032000047F82088FEF7E3FFFEF78FFA002038BD6D
:103210000020F4E72378C3F3001282F0010262F386
:10322000041356E72378C3F3000282F0010262F32D
:1032300000034EE76378C3F3C00282F0010262F339
:10324000C3034BE70120E2E7CA18002000EB40036C
:10325000C3EB031300EB830003B2002B07DAB3F1D7
:10326000800001D503F17F0040F30720704703F190
:103270008000F9E7164B1B78D90707D5154B18784E
:1032800040007F2820D808B3C0B270479A0703D502
:10329000104B18788000F4E75B0703D50D4B1878C6
:1032A000C000EEE70C4B1B7863B10C4A0949127859
:1032B00008789342F4D210FB03F0C000B0FBF2F0A8
:1032C00080B2DEE70820DFE77F20704701207047EB
:1032D000540F0020720C0020550F0020730C0020AA
:1032E000154B1B78D90705D5144B1878800800B307
:1032F000C0B270479A0703D5104B18784008F6E71C
:103300005B0705D50D4B18787F28F0D97F207047D3
:103310000B4B1B785BB10B4A084912780878934233
:1033200036BF10FB03F080B2B0FBF2F0ECE70120F7
:10333000DEE70120704700BF540F0020760C00200C
:10334000560F0020770C002010B5314CE278A3789E
:103350001343627913432279134305D02D4B08227E
:103360001A702D4B01221A70CD2804D1FFF782FF6D
:103370004042E07010BDCE2802D1FFF77BFFF8E796
:10338000CF2804D1FFF776FF4042A070F2E7D028A3
:1033900002D1FFF76FFFF8E7D92803D1FFF7A0FFAD
:1033A0002071E7E7DA2803D1FFF79AFF4042F7E7F9
:1033B000DB2804D1FFF794FF40426071DAE7DC2894
:1033C00002D1FFF78DFFF8E700F12F03DBB2072BE7
:1033D00007D8A0F1D10301209840637818436070AA
:1033E000C8E7DD2805D10D4A137843F001031370B7
:1033F000C0E7DE2804D1094A137843F00203F6E758
:10340000DF28B7D1054A137843F00403EFE700BF84
:103410004E0F0020550F0020560F0020540F0020A3
:10342000364BCD2893F902200AD193F903100029D5
:103430000CDA0021D97052B9314A0021117006E02E
:10344000CE280DD193F903100029F2DC72B11A795C
:103450005B7913435BB2002B4FD12A4A137070473C
:10346000CF2806D1002AF1DA00229A7093F90320BE
:10347000E1E7D02802D1002AF6DCE7E7D92893F962
:10348000041004D10029E1DD00211971DEE7DA28FA
:1034900002D10029DADAF7E7DB2893F9051004D125
:1034A0000029D3DA00215971D0E7DC2802D10029A4
:1034B000F8DCCBE700F12F01C9B2072907D8D138D2
:1034C00001218140587820EA01005870BEE7DD28CC
:1034D00005D10D48017821F001010170B6E7DE2821
:1034E00004D10948017821F00201F6E7DF28ADD1C7
:1034F0000548017821F00401EFE770474E0F0020E6
:10350000550F0020560F0020540F002008B500F082
:10351000E3FB094BDA7899780A431CBF074A10800D
:103520001A795B7913431CBF054B18800248BDE82C
:10353000084000F0C5B900BF4E0F00204A0F002020
:103540004C0F002008B5062200210548FDF742FA7D
:10355000044A00231370044A1370044A137008BD10
:103560004E0F0020550F0020560F0020540F002052
:1035700090F902305BB990F9033043B990F9043007
:103580002BB990F90500003018BF012070470120C9
:103590007047000037B55A4C062221466846FDF7B1
:1035A0007FF90023A370E370237163719DF80220FB
:1035B0009DF8033013430AD0524B188800F091FB5A
:1035C000514A13783BB35149097888422DDC9DF864
:1035D00004209DF8053013430BD04D4B188800F0A4
:1035E00080FB4C4A1378002B4FD04B490978884216
:1035F00055DC6946424800F08BFA18B94048FFF79D
:10360000B7FF08B1FFF782FF062269463C48FDF785
:1036100047F903B030BD4149097801EB8101B0EBB6
:10362000410FD4DD0133137001E0FF2BFAD19DF976
:1036300002503DB1FFF71EFE002DCCBF0123FF233A
:103640005843A0709DF903503DB1FFF713FE002DC4
:10365000CCBF0123FF235843E07094F902000028F7
:10366000B5D094F90320002AB1D0FFF7EFFD30B1B7
:10367000A0701046FFF7EAFD20B1E070A7E7012334
:10368000A370F6E70123E370A1E72549097801EB70
:103690008101B0EB410FACDD0133137001E0FF2B72
:1036A000FAD19DF904503DB1FFF71AFE002DCCBFB1
:1036B0000123FF23584320719DF905503DB1FFF7C9
:1036C0000FFE002DCCBF0123FF235843607194F9F6
:1036D000040000288DD094F90520002A89D0FFF736
:1036E000B5FD30B120711046FFF7B0FD20B160711B
:1036F0007FE701232371F6E70123637179E700BFB8
:103700004E0F00204A0F0020550F0020710C0020A2
:103710004C0F0020560F0020750C0020700C00206C
:10372000740C0020F8B5144642799DF818701D46B7
:10373000284B92B11C7000F0CFFA274B188004F18F
:103740002003DBB2072B44D804F007040120A0407B
:10375000C0B2BDE8F840FDF7A5BD1E78A6422ED147
:103760001D4B188800F0BDFAC72828D8AE4205F1D5
:10377000200415D006F12003DBB2072B06D806F093
:1037800007060120B040C0B2FDF795FDE3B2072B5C
:1037900006D805F0070301209840C0B2FDF782FD6E
:1037A0003846E4B2FDF776FD072C12D805F0070580
:1037B0000120A840C0B2BDE8F840FDF77CBD04F18F
:1037C0002003DBB2072B04D804F007040120A0403B
:1037D000F0E7F8BD570F0020580F002013B5A0F5F3
:1037E000F84018380C4606283BD8DFE800F0171ED2
:1037F0000410252C330026230093E1231A4647F6B4
:103800001A412046FFF78EFF002002B010BD27238B
:103810000093E5231A4647F61B41F2E7262300935F
:10382000E022E12347F61841EBE727230093E42247
:10383000E52347F61941E4E726230093E222E1233A
:1038400047F61C41DDE727230093E622E52347F6F0
:103850001D41D6E728230093E522012347F61E41A8
:10386000CFE7487918B1034B00221A70CDE7012049
:10387000CBE700BF570F0020014B1860704700BF17
:103880005C0F0020024B186808B1036818477047A6
:103890005C0F002008B5FFF7F5FF08BD024B1B6861
:1038A0000BB15B68184770475C0F0020034B1B6827
:1038B0001BB1062101709B68184770475C0F002000
:1038C000034B1B681BB102210170DB68184770476E
:1038D0005C0F00200B4B07B51A8882420ED018806F
:1038E000094B1B6853B103228DF80500000A8DF8BF
:1038F00006008DF804201B6901A8984703B05DF805
:1039000004FB00BF620F00205C0F00200B4B07B5CB
:103910001A8882420FD01880094B1B685BB10422C1
:103920008DF80500000A8DF806008DF804201B694B
:103930000DEB0200984703B05DF804FB600F002018
:103940005C0F00200E4B0F4A1B68127802336AB1DD
:103950000D4A92F90020002A08DA0C4B1B681E223F
:1039600002331A440020934202D170470622F8E73E
:1039700013F8011B0029F6D00130C0B2F3E700BFF5
:10398000640C0020780C0020CA180020680C00206D
:1039900028B3134B1B78ABB1124B93F90030002BBB
:1039A00010DAC2081D2A17D80F4B1B68134400F009
:1039B00007009A78012303FA00F0024214BF184668
:1039C00000207047094B1B689A1C083312F8011B32
:1039D000814203D09A42F9D10020704701207047FC
:1039E000780C0020CA180020680C0020640C00200D
:1039F00030B54FF0FF33851C002215F8014B8C4287
:103A00000ED0B3F1FF3F02D1002C08BF13460132A4
:103A1000D4B2062C62B2F0D15A1C01D01844817085
:103A200030BD10B5831C0022083013F8014B8C42C6
:103A300008BF03F8012C8342F7D110BDCB081D2B22
:103A400007D8184401F007030121994083781943EE
:103A500081707047CB081D2B08D8184401F007016E
:103A600001238B40817821EA0301817070470000B7
:103A7000084B1B78014643B1074B93F90030002BEC
:103A800003DA064B1868FFF7D9BF054B1868FFF734
:103A9000AFBF00BF780C0020CA180020680C0020BF
:103AA000640C0020084B1B78014643B1074B93F987
:103AB0000030002B03DA064B1868FFF7CBBF054B2D
:103AC0001868FFF7AEBF00BF780C0020CA180020AE
:103AD000680C0020640C0020094B1B785BB1094B7B
:103AE00093F90030002B06DA074B18681E220021DC
:103AF0000230FCF76FBF054B06221868F7E700BFDE
:103B0000780C0020CA180020680C0020640C0020EB
:103B100042784B789A421DD190F902301BB191F94D
:103B200002209A4216D190F903301BB191F903207B
:103B30009A420FD190F905301BB191F905209A42B4
:103B400008D190F9040030B191F90430181A18BF67
:103B50000120704701207047704708B5FFF7FCFF50
:103B600008BD000008B50028034B14BF0220012047
:103B70001870FFF7F2FF08BD640F002008B5034B73
:103B800003201870FFF7E9FF08BD00BF640F002095
:103B9000FFF7E8BF08B5034B01201870FFF7DDFF02
:103BA00008BD00BF640F0020FFF7F4BF70477047E7
:103BB000704708B5FFF7FCFF08BD704708B5FFF771
:103BC000FCFF08BD10B5FFF7F1FFFEF70DFFFFF793
:103BD000EEFF0024E0B2FEF741FE18B901340F2CCD
:103BE000F8D110BD0120FCE708B500F069FEBDE882
:103BF000084000F021BC08B5FDF78BF940F2A46045
:103C0000BDE8084000F0E9BD08B5FEF795F9FEF7FC
:103C1000A9F9FFF761FFFFF795FC0020FFF75AFEB7
:103C20000020FFF773FEBDE80840FDF779B90000FA
:103C3000302383F31188064BDA69064B1A60064A73
:103C400000231360054A136083F31188704700BF97
:103C500010190020700F0020680F00206C0F00204A
:103C6000FFF7E6BFD0B5302383F31188134B144C14
:103C7000144AD96923681068C91A884212480AD9B7
:103C8000A3F58333E03B23600468104B01F58331D7
:103C90002344E031036011600468002383F311883A
:103CA0000B4E0C4A4FF47A700027E0FB01670023AB
:103CB00030463946FCF732FC2044D0BD10190020B4
:103CC000700F0020680F00206C0F002088598F02B1
:103CD0009F860100A086010008B5FFF7C3FF80B2F0
:103CE00008BD10B50446FFF7BDFF001B80B210BD34
:103CF00008B542F2107000F070FD00BE08BD7047BC
:103D00007047000010B5084A084C117824784B1C05
:103D100003F00F039C421DBF054C1370605400203C
:103D200018BF012010BD00BFFA180020FB180020AA
:103D3000EA180020302383F31188002383F31188CD
:103D400070470000F8B50F4C2346002243F8042FBB
:103D500090F8DB7090F8D96090F8D65090F8DA209F
:103D600090F8D81090F8D70042EA072241EA0621DD
:103D700045EA002000F0D2FA20606068002818BFF1
:103D80002046F8BD740F002090F8DA1090F8DB00A0
:103D9000064B41EA002102291A7804D1012A01D0F8
:103DA000062A02D15A78024B1A707047BC0F0020C5
:103DB000AC0F002010B50446052922D8DFE801F039
:103DC0001D21031D1D1F302383F311880D4A01217E
:103DD00000F0ECFD0C4A0221204600F0E7FD002334
:103DE00083F31188094B1B7813B10520FFF78AFF75
:103DF0000220BDE81040FFF785BF0846F9E705201F
:103E0000F7E710BDA45C0000C85C0000B50F0020FF
:103E100070B50446064803680D460BB100F058FB28
:103E20002B462146034A0248BDE8704000F048BBDB
:103E3000940F0020393E000070B530230E4683F306
:103E400011880B78042B03D0002383F3118870BDF5
:103E5000154B1B78DB09F7D1144C2278002AF3D0DC
:103E6000134B1B78002BEFD00B899B0705D408233D
:103E7000104A0121304600F0EBFD0F4B247840F250
:103E8000E730A4FB034520184FF000014FF47A728D
:103E90004FF0000345EB0101FCF740FB3146800089
:103EA000FFF7B6FFD0E700BFCA180020900F002030
:103EB000780C0020AD0F0020A0860100F8B590F826
:103EC000D43003F07F02212A044640F0A78013F08B
:103ED000800251D0002A00F0A18090F8D520022A5B
:103EE00043D0032A31D0012A40F0988090F8D8308E
:103EF00090F8D90053EA002011D0012894F8D62078
:103F000017D0564BC4F8C8301A7094F8DA3094F8C9
:103F1000DB2043EA0223C4F8CC30002343E0504BBB
:103F2000C4F8C8300823C4F8CC30C4F8D00001204D
:103F30001AE0022AE5D14B4BC4F8C8300623C4F876
:103F4000CC300023C4F8D0300EE090F8D82090F8A0
:103F5000D91052EA012261D1434BC0F8C830012088
:103F6000C4F8CC00C4F8D020F8BD404BC0F8C8302D
:103F70000120C4F8CC00E4E790F8D5200A2A44D008
:103F80000B2A13D0092A49D190F8D82090F8D910DB
:103F900042EA0122012A41D8354BC0F8C830022339
:103FA000C0F8CC30334BC4F8D030C0E790F8D830EC
:103FB00090F8D92053EA022321D190F8D6502A4B09
:103FC0001D70E5B9294B1A78CAB1302282F31188E5
:103FD0001E78294B40F2E730A6FB036730184FF0FC
:103FE00000014FF47A724FF0000347EB0101FCF738
:103FF00095FA21468000FFF70BFF85F31188002317
:10400000C4F8C830C4F8CC30CDE71C49174B0D7844
:1040100090F8D7201A70ED09F1D1D5E703F09F038E
:10402000812B01D000209FE794F8D530062BF9D1E1
:1040300094F8D920616894F8D8304D6894F8D61077
:1040400043EA0223204694F8D720A8470028E9D065
:104050004368C4F8C83003685DE700BFD40F002090
:10406000AD0F0020B60F0020780C0020900F00202C
:10407000BC0F0020893D0000A0860100CA18002066
:1040800008B5102200210448FCF7A4FC034A0023D1
:104090001370034A137008BDEA180020FA180020B4
:1040A000FB180020F8B5294D294E2C4630782B7886
:1040B000284F0021984230D101B12070F8BD237003
:1040C000254B01221A70254B93F8DF10081C18BFEE
:1040D0000120FFF753FDE9E723701F4B00221A7000
:1040E000FFF792FD1D4B93F8DF10081C18BF01204D
:1040F000FFF74EFDDAE72370184B93F8DF10081C2A
:1041000018BF0120FFF72EFDD0E7002123700846DD
:10411000F8E72370FFF73EFDC8E71A460133BA5CA3
:1041200003F00F030121052AC4D80FF2080C5CF834
:1041300022F000BF13410000B5400000F74000002E
:104140000B410000BF400000D9400000FB180020D8
:10415000FA180020EA180020B50F0020841900206A
:10416000124A41F2340310B5D3585B0348BF02F53D
:104170002C32044642BF92F8083103F0EF0382F874
:10418000083100F0E9FB41F2883000F026FB0849D5
:10419000204600F0C9FB074A92F8083143F01003AB
:1041A00082F80831044B00221A6010BD00700440F0
:1041B000EC5C000000200740940F0020014B1878B1
:1041C000704700BFAC0F002070B5302304460D4689
:1041D000164683F311880F490B78042B03D0002374
:1041E00083F3118870BD01200B89A04018420AD0CA
:1041F00001EB8401CB6858694FF47A710C3000F000
:10420000F9FA0130EBD033462A462146014800F046
:104210001FFCE4E78419002010B50146044608227B
:104220000120FFF7D1FF082221460248FCF738FBA6
:1042300010BD00BFAD0F0020014620220220FFF775
:10424000C3BF000010B50146044606220220FFF756
:10425000BBFF062221460248FCF722FB10BD00BF2F
:10426000B60F0020014603220220FFF7ADBF7047C2
:104270007047704708B5FFF7FAFF00F087FEFFF7B9
:10428000F7FF08BD08B500F083FEFFF7F2FF08BD99
:10429000FFF78ABC08B5FFF7F3FE0648FFF760FF9B
:1042A000054B064A1A6041F28830BDE8084000F02C
:1042B00094BA00BF84190020DC0F00207C0C002081
:1042C000014B1868FFF7D8BADC0F002038B5114C45
:1042D000FFF7E8FE2378052B1AD125462378052B16
:1042E00005D0FDF7DDFEBDE83840FFF70FB9FFF759
:1042F00082FCB4F8DC309B07F0D5FFF763FC0028A4
:10430000ECD0284600F0B6FB284600F042FEE5E778
:1043100038BD00BF8419002070470000020A032A3C
:1043200011D006D8012A1ED0022A1FD00020024632
:1043300011E0212A11D0222AF8D1E9B10129F5D1C1
:10434000B6200F4A07E0C0B20228EFD80D4A0E4946
:1043500052F82020085C1A60704751B10129E5D15C
:1043600009200A4AF7E71220094AF4E73B20094AE4
:10437000F1E70920084AEEE74420084AEBE700BFCE
:10438000FC5D0000FC5C0000085D0000365D000084
:10439000465D00000B5D00001D5D0000585D0000E3
:1043A000024B034A1A60034A5A607047FC18002007
:1043B000801A002000000320094B30B51C684D1EF8
:1043C000224449422A440A4059681044884204D889
:1043D000A04202D31860104630BD0022FBE700BFA8
:1043E000FC18002008B5302383F31188FFF7E4FFA1
:1043F000002383F3118808BD70477047FEE7000073
:104400000C4B70B50820002493E82600043995422F
:1044100007D8D968914209D8013803F11003F3D1C4
:1044200070BD51F8046F42F8046BF0E742F8044B9A
:10443000F0E700BFB45E000038B5084C012300254A
:1044400023706560FFF7ACFF0549064800F03AF9B4
:104450000223237085F3118838BD00BF081900209E
:10446000345F000010190020034BDA68937D0BB114
:10447000013B937500F03EB810190020034B5968BA
:104480005A68521A9042FBD8704700BF001000E0F3
:1044900010B50A4A13699C68A1420CD85C68816017
:1044A00003604460206058609868411A99604FF03A
:1044B000FF33936110BD091B1B68ECE71019002046
:1044C00010B403610023C260436110BCFFF7E0BF7A
:1044D000036881689A680A449A60426813605A6067
:1044E00000230360024B4FF0FF329A61704700BF18
:1044F0001019002070B5124DEA6929460132EA61AF
:1045000051F8102F8A4206D09368013B9360302601
:104510002C69A36803B170BD226861680A605160AC
:10452000236083F31188E36821692046984786F366
:10453000118861690029EBD02046FFF7A9FFE7E762
:104540001019002000230375826803691B689968AD
:104550009142FBD25A680360426010605860704715
:1045600000230375826803691B6899689142FBD830
:104570005A680360426010605860704708B5302385
:1045800083F311880A7D0023052A06D8DFE802F0AC
:104590000C050503130F8A6913604FF0FF338B611D
:1045A0000846FFF7CFFF002383F3118808BD8A690F
:1045B0009368013393604A680B6813605A60ECE7B4
:1045C000084B10B51C68D86822681A605360012235
:1045D0002275DC60FFF7C4FF01462046BDE81040AD
:1045E000FBF786BF10190020FFF7ACBF064BD96858
:1045F0001422087518688A7502681A6053600122CF
:104600000275D860FBF774BF1019002030B50C4B51
:10461000DC684B1C87B005460FD02346094A684624
:10462000FFF74EFF2846FFF7E1FF009B13B16846F6
:10463000FFF74EFFA06907B030BDFFF7D7FFF9E7DE
:10464000101900207D450000044B1A68DB68926851
:104650009B689A4201D9FFF7B3BF70471019002039
:10466000084BDA681B6898689368927D22B198427B
:1046700094BF002001207047984234BF00200120E1
:10468000704700BF101900200C4B10B51C68D8688B
:1046900022681A60536001222275DC60837D4BB969
:1046A000FFF750FF1423837501462046BDE81040F4
:1046B000FBF71EBFFFF754FFF6E700BF10190020FD
:1046C00030BFFDE770B504460025194B856286B002
:1046D00021630E46586000F0ADF804F11003236129
:1046E00063614FF0FF33A361124BE561DA69246027
:1046F0000023C4E9082304F134016460A560E56285
:10470000E56580230C4A204600F01CF80123E06098
:104710000A4A0375009272680192B268CDE90223D9
:10472000074B6846CDE9043500F042F806B070BD8D
:104730000819002010190020435F0000485F0000A6
:10474000C146000002228B608A824B621422002341
:1047500008618A750B62CB61084670478368C1683F
:10476000A3F14C0243F81C2C026943F84C2C42691B
:1047700043F8482C0C4A43F82C2C0C4843F8180CEE
:10478000022203F8142C1420002203F8120C43F820
:10479000201C03F8132C43F8041C43F8082C43F89E
:1047A0000C2CA3F12800704701050000101900200F
:1047B00008B5FFF7D3FFBDE80840FFF715BF0000BD
:1047C000024BDB6898610F20FFF710BF1019002023
:1047D000302383F31188FFF7F3BF08B50146302378
:1047E00083F311880820FFF711FF002383F311885A
:1047F00008BD0000054BDB6821B103609861032010
:10480000FFF704BF4FF0FF30704700BF10190020C2
:1048100003682BB10022026099611846FFF7E4BEDD
:104820007047EFF30983203383F30988002383F370
:1048300011887047302080F3118862B60B4B0C4A08
:10484000D96821F4E0610904090C0A430949DA60D6
:10485000CA6842F08072CA6007490A6842F00102E1
:104860000A602022DA7783F82200704700ED00E02A
:104870000003FA05F0ED00E0001000E010B5302371
:1048800083F311880B4B5B6813F400630FD0EFF3D5
:104890000984203C4FF08073E36184F30988FFF7BB
:1048A000DFFE10B1044BA36110BD044BFBE783F3A3
:1048B0001188F9E700ED00E013050000160500007F
:1048C00008B500F0A9FB054800F0D8FC00F01BF883
:1048D000FFF7D8FCBDE8084000F002B8545F0000C4
:1048E00000F028BC10B5044690F8D63080F8DE30D1
:1048F00000F030FE63681B6813B101212046984721
:104900000323237010BD00F075BD01230370002345
:10491000436000F14C0200F1880142F8043B8A42F6
:104920009363FAD18360704738B50446302383F32C
:1049300011880025416000F10C0300F14C0243F89E
:10494000045B9342FBD1204600F06CFD02232370F0
:1049500085F31188002038BD70B53023064683F3F7
:104960001188344600F0C4FD00250123756004F869
:104970000C3B4C3654F8043B7BB1586920B16FF0C6
:1049800001010C30FFF744FF54F8043C986920B152
:104990006FF001010C30FFF73BFFB44244F8045CB8
:1049A000E8D1FFF751FE85F3118870BD70B500EBBB
:1049B000810305465069DA600E46144618B1142288
:1049C0000021FCF707F8A06918B114220021FCF7B8
:1049D00001F831462846BDE8704000F0C5BDF8B585
:1049E000836803F001130446836000F1100500F1B1
:1049F0004C06002755F8043B7BB1586920B16FF095
:104A000001010C30FFF704FF55F8043C986920B110
:104A10006FF001010C30FFF7FBFEB54245F8047C56
:104A2000E8D12046BDE8F84000F0A4BDF0B400EBAA
:104A300081044789E4680125A4698D403D4345818F
:104A400023600023A2606360E360F0BC00F0F8BD67
:104A5000F0B400EB81040789E468012564698D40A6
:104A60003D43058123600023A2606360E360F0BCE6
:104A700000F04EBF0378052B10B50FD1084C94F809
:104A8000943043F0040384F89430C820FFF7A5FE67
:104A900094F8943003F0FB0384F8943010BD00BF09
:104AA000002007402DE9F041022300250446037051
:104AB000C0F8DC50856000F10C0600F14C074FF0A7
:104AC000300856F8043BABB188F3118856F8043C23
:104AD000586920B16FF001010C30FFF799FE56F8CC
:104AE000043C986920B16FF001010C30FFF790FE93
:104AF00085F31188BE4246F8045CE2D184F8C450C4
:104B0000204600F001FD63681B6823B120460021A8
:104B1000BDE8F0411847BDE8F081F8B50378052BF2
:104B2000044629D080F8E0300523037043681B68F1
:104B30000BB1042198470026A66004F10C0530272C
:104B40004C3455F8043BABB187F3118855F8043C5D
:104B5000586920B16FF001010C30FFF759FE55F88C
:104B6000043C986920B16FF001010C30FFF750FE52
:104B700086F31188A542E4D1F8BD0178052906D154
:104B8000436890F8E0201B68027003B11847704733
:104B900090F8C43070B5044613B1002380F8C430D7
:104BA00004F1D402204600F01FFD63689B68B3B98E
:104BB00094F8D43013F060053ED00021204600F078
:104BC000D5FE0021204600F0C5FE63681B6813B1C6
:104BD000062120469847062384F8C43070BD20463D
:104BE00098470028E4D094F8DB2094F8DA3043EAC0
:104BF0000223D4F8CC209A4288BFC4F8CC3094F970
:104C0000D430D4F8CC50002B4FF0300380F209811F
:104C1000002D00F0F880092284F8C42083F3118865
:104C20000021D4F8CC30D4F8C8202046FFF710FF7C
:104C3000002383F31188D1E794F8D52003F07F0394
:104C400043EA022340F20232934200F0C9802AD89C
:104C5000022B00F09D800BD8002B46D0012BACD14D
:104C60007D4BC4F8C8300223C4F8CC30002343E0A5
:104C7000B3F5817F00F0A180B3F5407F3FD0B3F55D
:104C8000807F9AD194F8D630012B96D1B4F8DC30DD
:104C900023F00203A4F8DC30C4F8C850C4F8CC50A8
:104CA000C4F8D0509FE740F2016293420CD8B3F5AC
:104CB000C06F2ED2B3F5A06F7FF47FAFC4F8C85099
:104CC000C4F8CC50654B17E0B3F5106F39D040F6FF
:104CD00002429342C4D0B3F5006F7FF46EAF04F18B
:104CE000DF03C4F8C830012328E004F1DC02C4F873
:104CF000C8200222C4F8CC20C4F8D03073E794F85E
:104D0000D630012B7FF459AFB4F8DC3043F0020306
:104D1000C0E794F8D920616894F8D8304E6894F8C8
:104D2000D71043EA0223204694F8D620B047002843
:104D30003FF443AF4368C4F8C8300368C4F8CC30CC
:104D4000AEE72378042B10D1302383F3118820465B
:104D5000FFF745FE85F31188636884F8DF501B6810
:104D6000032121700BB12046984794F8D6304BB1FF
:104D700084F8DF300423237063681B6813B10221B9
:104D8000204698470023C4F8C830C4F8CC30B3E7B5
:104D900094F8D8301D0603F00F0120460AD500F024
:104DA0000DFC012804D002287FF407AF2C4B58E7F4
:104DB0002C4B56E700F0ECFBF3E794F8D630002BD1
:104DC0007FF4FBAE94F8D83013F00F01DAD01A0656
:104DD000204602D500F0E2FDD4E700F0D3FDD1E794
:104DE00094F8D630002B7FF4E8AE94F8D83013F066
:104DF0000F01C7D01B06204602D500F0B7FDC1E762
:104E000000F0A8FDBEE7142284F8C42083F31188C3
:104E10002B462A4629462046FFF708FE85F31188CF
:104E2000DCE66DB1152284F8C42083F311880021DB
:104E3000D4F8CC30D4F8C8202046FFF7F7FDF7E6C9
:104E40000B2284F8C42083F311882B462A46294676
:104E50002046FFF7FDFDE1E7515F0000E548000057
:104E60004D5F00004F5F000038B590F8C430044635
:104E7000152B3AD8DFE803F0403939393939403950
:104E8000390B2A3A3939393939393939404090F8AA
:104E9000DB1090F8DA20D0F8CC3042EA01229342BD
:104EA00014D2C268128AB3FBF2F502FB15356DB954
:104EB000302383F311882B462A462946FFF7C8FD85
:104EC00085F311880A2384F8C4300EE0142384F893
:104ED000C430302383F3118800231A461946204634
:104EE000FFF7A4FD002383F3118838BDD0F8D0303C
:104EF00003B198470023E6E7002100F037FD0021C9
:104F0000204600F027FD63681B6813B10621204688
:104F100098470623D7E790F8C420152A38B50446E9
:104F200017D80123934040F6416213421FD113F476
:104F300080150FD19B020CD50B2380F8C430302391
:104F400083F311882B462A462946FFF781FD85F316
:104F5000118838BDC3689B695B68002BF9D1D0F814
:104F6000D03003B19847002384F8C430F1E7002122
:104F700000F0FCFC0021204600F0ECFC63681B689C
:104F800013B10621204698470623EDE700F04CB800
:104F90007047704710B50022044608460121FFF70C
:104FA00021FA18B90C2323604FF0FF3010BD704771
:104FB00000F1604300F01F02400903F5614309015D
:104FC0008000C9B200F1604083F8001300F5614031
:104FD00001239340C0F880310360704700F01F0345
:104FE00001229A4043099B0003F1604303F56143AA
:104FF00000F1604000F56140C3F88020C3F88021D3
:10500000002380F80033704700F16040090100F58B
:105010006D40C9B201767047024A136823F001035C
:105020001360704700D00040354A36494CF2205397
:1050300030B5D3814DF62813D3811388324D23F038
:1050400001031B041B0C138041F2380289B08B58FA
:1050500043F478538B502D4BAA221A700FCD6C4617
:105060000FC495E80F0084E80F00294A00239364D9
:10507000D36402F5E0328A211170A2F58052A42196
:1050800051706A4652F8041BB1F5007F03D001331A
:10509000082BF7D10723DB001E4A63F07F03DBB246
:1050A000137013469A799107FCD59A79D206FCD4ED
:1050B000184B19469A7902F00C02082AFAD10122FB
:1050C0001A714E225A718B7903F06003602BFAD16A
:1050D0000C4B41F244024FF08270985041F248006C
:1050E00000221A5041F204004FF480341C500A7020
:1050F000084A937903F00C030C2BFAD109B030BDA8
:105100000020054000700440B459000000E0074052
:10511000009004400040064008B5302383F3118816
:10512000FFF7A2F9002383F31188BDE80840FFF7D9
:10513000A5BB0000054B40F2AF425A6000229A60C6
:1051400007221A6008210B20FFF75EBF10E000E085
:105150000123062A30B503FA01F344693E4D0CD110
:105160002343A842436172D13C484FF4807351E01D
:105170003B4B984208D13B4812E024EA0303A84283
:105180004361F5D135480BE0374B98423CD0403372
:1051900098423BD0354C364BA0420CBF18460020FD
:1051A000162A39D801A353F822F000BF6B51000032
:1051B000275200006B5100001B52000021520000DA
:1051C000275200006B5100001152000019520000DC
:1051D0001952000019520000195200001952000023
:1051E0001952000019520000195200006B510000C2
:1051F0002B52000031520000375200003D52000097
:1052000043520000495200001A48C9E71A48C7E74C
:105210004FF4907340F8213030BD40F20313F9E7AA
:105220004FF48173F6E70023F4E74FF40073F1E7DE
:105230004FF44073EEE74FF48063EBE74FF4A06365
:10524000E8E74FF4C063E5E74FF4E063E2E7044BBF
:10525000984299D1034888E700F00F40009004403D
:1052600040F00F4000A0044080F00F4000F10F40DC
:1052700000D0044000B0044000C004400D4941F299
:105280003802F8B58B5843F478538B50041D00F561
:10529000267627460025E9B257F8042B54F8040C6B
:1052A0000135FFF755FF202DF5D18434B442F0D1FC
:1052B000F8BD00BF007004400069C84000F0010064
:1052C00070470000064B1A783F2A00D9FEE718788D
:1052D000C0B2421CD2B21A70024B03EB801070476E
:1052E000C01800200014002000EB81002DE9F843D5
:1052F000C568AC69F4B1688A264E002363828C00CD
:10530000030443F0880346F83430C0B2FFF7DAFFF5
:1053100006EB411344F001045860688A030443F02B
:10532000C80346F83430C0B2FFF7CCFF06EBC40424
:10533000606008246B69E3B18F00164E287C47F04B
:1053400002084FF00009A3F8109046F83890FFF7D4
:10535000B9FF06EBC80847F00307C8F8040046F891
:105360003790287CFFF7AEFF06EBC70644F0040435
:1053700070602B6803F00303012B02D044F001049A
:105380000BB144F010043031034B03F82140BDE869
:10539000F88300BF001200200020074000EB8100CE
:1053A000F0B5C4686069037C43EA8101238A104C2C
:1053B0009A4241F0020128BF1A4604EBC1050023BE
:1053C00093420FD1427C1B0443EA821343F08803CB
:1053D00044F83130037C82F0010283F0010342740F
:1053E0000374F0BD8668F75C6E68F7540133E7E735
:1053F0000012002008B50948FFF787FA084B41F270
:1054000004020020995841F48021995041F248014A
:105410005850995841F44031995008BD84190020E2
:10542000007004400378012B10B459D12D4B9842E1
:1054300056D12D49002318460A4641F8330001EBA6
:10544000C3040133102B6060F7D1284B996841F2F7
:10545000340041F400019960195841F48021195039
:1054600003F52C3393F8441141F0020183F8441101
:1054700093F8401141F0800183F8401193F80C112A
:1054800041F0800183F80C1193F80C110906FBD44C
:10549000C2F3072183F89C10C2F30741120E83F870
:1054A000B01083F8B420FF2283F8802083F888208E
:1054B0001A7493F80C2142F0400283F80C21032265
:1054C00083F89420002283F8002193F8842042F08E
:1054D000010283F884200521352010BCFFF768BD48
:1054E00010BC704784190020001200200070044096
:1054F0000378012B05D1034B984202D13520FFF7E9
:105500006DBD7047841900200F4B70B50F4C0025FE
:105510001D70022384F894300D4BC3600646294663
:10552000FFF7E2FEFF2384F8883084F8803086F8A5
:10553000DE5084F8985084F88C309F2384F88430AF
:10554000012384F8943070BDC0180020002007406B
:10555000E861000090F8DE30024A03F07F0382F831
:105560009830704700200740102901D8FFF7BCBED3
:1055700070470000054A0123002003F13001013388
:10558000102B02F82100F8D1704700BF002007401F
:105590000F2911D8890001F1804101F5E42191F82A
:1055A000C00010F0080008D091F8C03013F0020FCE
:1055B0000CBF022001207047002070470F2911D82E
:1055C000890001F1804101F5E42191F8C00010F05B
:1055D000040008D091F8C03013F0020F0CBF022075
:1055E000012070470020704700EB8100F0B5C368D0
:1055F000124F9D69AC7C8E003443002307EBC40C32
:10560000DCF80410C95CD1540133082BF8D1C2680E
:10561000538A1B0443F0880147F83410E97C39B100
:10562000A97C81F00101314343F0C80347F83130D0
:10563000526901235374EB74F0BD00BF00120020C7
:1056400000EB8101CB6899690A683AB1588A13184E
:10565000013BB3FBF0F39BB20B8270470123FBE7E6
:1056600000EB81032DE9F041DE68DFF850C0B4693A
:10567000738AA57C9A4245EA810528BF1A460CEB3D
:10568000C50E002393420FD1E27C768A930143EA50
:10569000064343F0880382F001024CF83530E2748F
:1056A000BDE8F041FFF7CCBFDEF8047017F80380C7
:1056B000A76807F803800133E4E700BF0012002069
:1056C0002DE9F0478F4C94F88050EDB26F0707D565
:1056D0008D484368DB6803B19847042384F8803021
:1056E000DFF82092884C2E070DD4EC0740F1D580CE
:1056F0008548FFF7D7F9834B012283F88020BDE866
:10570000F047FFF7BBB899F89030DBB21D09AE1C2B
:1057100004EB8602D2F804809A0802F0010AC3F36F
:10572000C0034AEA850A4AEA430A2BB9D8F8183076
:1057300013B102F001029A74744F57F83A20C2F381
:105740008303092B58D00D2B40D0012B4DD1D8F815
:105750001830002B49D0C2F30947302383F3118856
:105760003A4629462046FFF77BFF002383F3118842
:10577000002F3AD0D8F818309A683A449A605A689C
:105780003A445A601A68D21B1A601A8A013A92B2D5
:105790001A82B8F81230BB4200D832BB012303FA98
:1057A00005F2638923EA0203638104EB86035B68E5
:1057B000DB6813B1294620469847302383F31188CC
:1057C00004EB860673689869416862E0638923F098
:1057D000010363812946D8F804302046984799F898
:1057E000943003F0DF0389F89430082389F880307F
:1057F00099F88050EDB276E7D8F81430002BF4D049
:105800008DB9B4F8D430052B0DD194F8D63084F886
:10581000DE302046FFF79EFE63681B680BB1012156
:10582000984703232370D8F8143057F83A20586863
:105830001968C2F3094210448842586012D299682C
:105840000A449A60302383F31188D8F81430D3E9DE
:1058500000232946D21A2046FFF7A0FD002383F338
:105860001188C2E7012303FA05F2238923EA020320
:10587000238104EB86035B689B6813B129462046AD
:105880009847302383F3118804EB86060021736860
:1058900058690C30FEF7BCFFE0E7280642BF194B01
:1058A000802283F88020A90708D5164B93F888201A
:1058B000D2B283F88820022283F88020EA0610D52D
:1058C00011480378042B08D1FFF727F90D4A92F805
:1058D000843043F0200382F884300A4B102283F88E
:1058E0008020AB067FF50BAF064C074894F8843058
:1058F00003F0DF0384F88430FFF73FF9202384F8B6
:105900008030FCE6002007408419002000120020AF
:1059100070B4A1B990F8C4300B2B10D1C3680C4DF2
:105920009C695B8AA27C1B0443F0C80645F8326080
:1059300082F0010243F0880345F83230E17400EB55
:10594000810370BCDB685B691A68FFF727BD00BF85
:1059500000120020890001F1804101F5E42191F855
:10596000C03043F0020381F8C0307047890001F174
:10597000804101F5E42191F8C03043F0020381F841
:10598000C0307047890001F1804101F5E42191F8B0
:10599000C03003F0FD0381F8C0307047890001F189
:1059A000804101F5E42191F8C03003F0FD0381F856
:0459B000C03070474C
:1059B4002000000040000000800000000001000002
:1059C40000020000000400000005000000060000C2
:1059D40000000000000000000000000000000000C3
:1059E40000000000000000000000000000000000B3
:1059F40000000000000000000000000000000000A3
:105A04000000000000000000000000000000000092
:105A14000000000000000000000000000000000082
:105A24000000000000000000000000000000000072
:105A34002E002B002921E1000000000000001E00C0
:105A4400140004001D003500000000001F001A00AF
:105A540016001B0049004D0000002000080007004C
:105A6400060050004A002A00210015000900190010
:105A7400000000004C00220017000A0005004F003F
:105A8400E200E00023001C000B00110051002C0078
:105A94004E00240018000D00100000002800000033
:105AA40025000C000E003600520029384B00260059
:105AB40012000F0037002F000000E700270013003A
:105AC400330038003000000000002D0031003400A5
:105AD400E50000000000000039003C003F004200E7
:105AE4004500480000003A003D00400043004600E5
:105AF400007C00003B003E0041004400470061522E
:105B040000002E002B002921E1000000000000000D
:105B14001E000000000000003500000000001F000F
:105B240000000000000049004D00000020000000BB
:105B34000000000050004A002A002100000000007C
:105B44000000000000004C002200000000000000E3
:105B54004F00E200E00000000000000000005100DF
:105B640027004E002400240021001E00000028000D
:105B740000006700250022001F00520029384B0056
:105B8400540026002300200063000000E7005500B5
:105B94005600570028002800000000002D003100A6
:105BA4003400E50000000000000039003C003F0024
:105BB40042004500A90000003A003D0040004300B7
:105BC400A800007C00003B003E0041004400AA0005
:105BD40001000000E200E900EA00B500B600B700E9
:105BE400CD008301CC008A01920194012102230299
:105BF40024022502260227022A02B300B4006F0001
:105C040070009F01CB019F02A00281828381828365
:105C1400E200E900EA00B500B600B700CD00830158
:105C2400CC008A019201940121022302240225025C
:105C3400260227022A02B300B4006F0070009F01FD
:105C4400CB019F02A002000040F03F40C0F01F4083
:105C540080F00F40C0F05F4080F01F4040F02F40C4
:105C6400C0F04F40C0F03F4080F03F4080F04F40D4
:105C740080F06F40C0F02F4040F00F40C0F07F40F4
:105C840000F0CF4000F0DF4040F01F4140F00F41F2
:105C9400C0F00F4040F01F4080F02F40C0F06F4034
:105CA4000300000000000000013D000000000000AF
:105CB400080000007C0F002000000000020000002B
:105CC400000000000300000000000000013D00008F
:105CD4000000000020000000C00F002000000000B1
:105CE4000200000000000000B53D0000453D00003A
:105CF400BD3E0000353D00009C5D0000A05D00003D
